{
  "contractName": "BTCExchange",
  "abi": [
    {
      "inputs": [
        {
          "internalType": "contract MockBTC",
          "name": "_btc",
          "type": "address"
        },
        {
          "internalType": "contract MockUSD",
          "name": "_usd",
          "type": "address"
        }
      ],
      "payable": false,
      "stateMutability": "nonpayable",
      "type": "constructor"
    },
    {
      "anonymous": false,
      "inputs": [
        {
          "indexed": false,
          "internalType": "address",
          "name": "account",
          "type": "address"
        },
        {
          "indexed": false,
          "internalType": "address",
          "name": "btc",
          "type": "address"
        },
        {
          "indexed": false,
          "internalType": "uint256",
          "name": "amount",
          "type": "uint256"
        },
        {
          "indexed": false,
          "internalType": "uint256",
          "name": "rate",
          "type": "uint256"
        }
      ],
      "name": "BTCPurchase",
      "type": "event"
    },
    {
      "anonymous": false,
      "inputs": [
        {
          "indexed": false,
          "internalType": "address",
          "name": "account",
          "type": "address"
        },
        {
          "indexed": false,
          "internalType": "address",
          "name": "btc",
          "type": "address"
        },
        {
          "indexed": false,
          "internalType": "uint256",
          "name": "amount",
          "type": "uint256"
        },
        {
          "indexed": false,
          "internalType": "uint256",
          "name": "rate",
          "type": "uint256"
        }
      ],
      "name": "BTCSold",
      "type": "event"
    },
    {
      "constant": true,
      "inputs": [],
      "name": "btc",
      "outputs": [
        {
          "internalType": "contract MockBTC",
          "name": "",
          "type": "address"
        }
      ],
      "payable": false,
      "stateMutability": "view",
      "type": "function"
    },
    {
      "constant": true,
      "inputs": [],
      "name": "name",
      "outputs": [
        {
          "internalType": "string",
          "name": "",
          "type": "string"
        }
      ],
      "payable": false,
      "stateMutability": "view",
      "type": "function"
    },
    {
      "constant": true,
      "inputs": [],
      "name": "rate",
      "outputs": [
        {
          "internalType": "uint256",
          "name": "",
          "type": "uint256"
        }
      ],
      "payable": false,
      "stateMutability": "view",
      "type": "function"
    },
    {
      "constant": true,
      "inputs": [],
      "name": "usd",
      "outputs": [
        {
          "internalType": "contract MockUSD",
          "name": "",
          "type": "address"
        }
      ],
      "payable": false,
      "stateMutability": "view",
      "type": "function"
    },
    {
      "constant": false,
      "inputs": [
        {
          "internalType": "uint256",
          "name": "_rate",
          "type": "uint256"
        }
      ],
      "name": "setRate",
      "outputs": [],
      "payable": false,
      "stateMutability": "nonpayable",
      "type": "function"
    },
    {
      "constant": false,
      "inputs": [
        {
          "internalType": "uint256",
          "name": "_usd_amount",
          "type": "uint256"
        }
      ],
      "name": "buyBTC",
      "outputs": [],
      "payable": false,
      "stateMutability": "nonpayable",
      "type": "function"
    },
    {
      "constant": false,
      "inputs": [
        {
          "internalType": "uint256",
          "name": "_amount",
          "type": "uint256"
        }
      ],
      "name": "mintBTC",
      "outputs": [],
      "payable": false,
      "stateMutability": "nonpayable",
      "type": "function"
    },
    {
      "constant": true,
      "inputs": [],
      "name": "checkBTC",
      "outputs": [
        {
          "internalType": "uint256",
          "name": "",
          "type": "uint256"
        }
      ],
      "payable": false,
      "stateMutability": "view",
      "type": "function"
    },
    {
      "constant": true,
      "inputs": [],
      "name": "checkUSD",
      "outputs": [
        {
          "internalType": "uint256",
          "name": "",
          "type": "uint256"
        }
      ],
      "payable": false,
      "stateMutability": "view",
      "type": "function"
    }
  ],
  "bytecode": "0x60806040526040518060400160405280601c81526020017f4d6f636b696e67204445582065786368616e676520666f7220425443000000008152506002908051906020019061004f92919061012b565b5034801561005c57600080fd5b50604051610c31380380610c318339818101604052604081101561007f57600080fd5b81019080805190602001909291908051906020019092919050505061d6d8600381905550816000806101000a81548173ffffffffffffffffffffffffffffffffffffffff021916908373ffffffffffffffffffffffffffffffffffffffff16021790555080600160006101000a81548173ffffffffffffffffffffffffffffffffffffffff021916908373ffffffffffffffffffffffffffffffffffffffff16021790555050506101d0565b828054600181600116156101000203166002900490600052602060002090601f016020900481019282601f1061016c57805160ff191683800117855561019a565b8280016001018555821561019a579182015b8281111561019957825182559160200191906001019061017e565b5b5090506101a791906101ab565b5090565b6101cd91905b808211156101c95760008160009055506001016101b1565b5090565b90565b610a52806101df6000396000f3fe608060405234801561001057600080fd5b50600436106100935760003560e01c806334fcf4371161006657806334fcf437146101855780635d741d3b146101b3578063a24da8d9146101d1578063a28d57d8146101ff578063d63a6ccd1461024957610093565b806306fdde0314610098578063080f54f71461011b57806315b55f49146101495780632c4e722e14610167575b600080fd5b6100a0610293565b6040518080602001828103825283818151815260200191508051906020019080838360005b838110156100e05780820151818401526020810190506100c5565b50505050905090810190601f16801561010d5780820380516001836020036101000a031916815260200191505b509250505060405180910390f35b6101476004803603602081101561013157600080fd5b8101908080359060200190929190505050610331565b005b6101516103e4565b6040518082815260200191505060405180910390f35b61016f6104c5565b6040518082815260200191505060405180910390f35b6101b16004803603602081101561019b57600080fd5b81019080803590602001909291905050506104cb565b005b6101bb6104d5565b6040518082815260200191505060405180910390f35b6101fd600480360360208110156101e757600080fd5b81019080803590602001909291905050506105b5565b005b6102076108c2565b604051808273ffffffffffffffffffffffffffffffffffffffff1673ffffffffffffffffffffffffffffffffffffffff16815260200191505060405180910390f35b6102516108e7565b604051808273ffffffffffffffffffffffffffffffffffffffff1673ffffffffffffffffffffffffffffffffffffffff16815260200191505060405180910390f35b60028054600181600116156101000203166002900480601f0160208091040260200160405190810160405280929190818152602001828054600181600116156101000203166002900480156103295780601f106102fe57610100808354040283529160200191610329565b820191906000526020600020905b81548152906001019060200180831161030c57829003601f168201915b505050505081565b6000809054906101000a900473ffffffffffffffffffffffffffffffffffffffff1673ffffffffffffffffffffffffffffffffffffffff1663a0712d68826040518263ffffffff1660e01b815260040180828152602001915050602060405180830381600087803b1580156103a557600080fd5b505af11580156103b9573d6000803e3d6000fd5b505050506040513d60208110156103cf57600080fd5b81019080805190602001909291905050505050565b6000600160009054906101000a900473ffffffffffffffffffffffffffffffffffffffff1673ffffffffffffffffffffffffffffffffffffffff166370a08231306040518263ffffffff1660e01b8152600401808273ffffffffffffffffffffffffffffffffffffffff1673ffffffffffffffffffffffffffffffffffffffff16815260200191505060206040518083038186803b15801561048557600080fd5b505afa158015610499573d6000803e3d6000fd5b505050506040513d60208110156104af57600080fd5b8101908080519060200190929190505050905090565b60035481565b8060038190555050565b60008060009054906101000a900473ffffffffffffffffffffffffffffffffffffffff1673ffffffffffffffffffffffffffffffffffffffff166370a08231306040518263ffffffff1660e01b8152600401808273ffffffffffffffffffffffffffffffffffffffff1673ffffffffffffffffffffffffffffffffffffffff16815260200191505060206040518083038186803b15801561057557600080fd5b505afa158015610589573d6000803e3d6000fd5b505050506040513d602081101561059f57600080fd5b8101908080519060200190929190505050905090565b60006105cc6003548361090d90919063ffffffff16565b90506000809054906101000a900473ffffffffffffffffffffffffffffffffffffffff1673ffffffffffffffffffffffffffffffffffffffff1663dd62ed3e30336040518363ffffffff1660e01b8152600401808373ffffffffffffffffffffffffffffffffffffffff1673ffffffffffffffffffffffffffffffffffffffff1681526020018273ffffffffffffffffffffffffffffffffffffffff1673ffffffffffffffffffffffffffffffffffffffff1681526020019250505060206040518083038186803b1580156106a057600080fd5b505afa1580156106b4573d6000803e3d6000fd5b505050506040513d60208110156106ca57600080fd5b8101908080519060200190929190505050506000809054906101000a900473ffffffffffffffffffffffffffffffffffffffff1673ffffffffffffffffffffffffffffffffffffffff166323b872dd3033846040518463ffffffff1660e01b8152600401808473ffffffffffffffffffffffffffffffffffffffff1673ffffffffffffffffffffffffffffffffffffffff1681526020018373ffffffffffffffffffffffffffffffffffffffff1673ffffffffffffffffffffffffffffffffffffffff1681526020018281526020019350505050602060405180830381600087803b1580156107b857600080fd5b505af11580156107cc573d6000803e3d6000fd5b505050506040513d60208110156107e257600080fd5b8101908080519060200190929190505050507ff6b61bb86fa0f8355912dd061790c3112ff64dcabda053c916cf88c9b9d4f8b9336000809054906101000a900473ffffffffffffffffffffffffffffffffffffffff1683600354604051808573ffffffffffffffffffffffffffffffffffffffff1673ffffffffffffffffffffffffffffffffffffffff1681526020018473ffffffffffffffffffffffffffffffffffffffff1673ffffffffffffffffffffffffffffffffffffffff16815260200183815260200182815260200194505050505060405180910390a15050565b6000809054906101000a900473ffffffffffffffffffffffffffffffffffffffff1681565b600160009054906101000a900473ffffffffffffffffffffffffffffffffffffffff1681565b600061094f83836040518060400160405280601a81526020017f536166654d6174683a206469766973696f6e206279207a65726f000000000000815250610957565b905092915050565b60008083118290610a03576040517f08c379a00000000000000000000000000000000000000000000000000000000081526004018080602001828103825283818151815260200191508051906020019080838360005b838110156109c85780820151818401526020810190506109ad565b50505050905090810190601f1680156109f55780820380516001836020036101000a031916815260200191505b509250505060405180910390fd5b506000838581610a0f57fe5b04905080915050939250505056fea265627a7a7231582079934f60daffca56d06fd4beaf961a977193d6dd29ea95d2df9eb3ae2833440464736f6c63430005100032",
  "source": "pragma solidity ^0.5.0;\n\nimport \"./MockBTC.sol\";\nimport \"./MockUSD.sol\";\nimport \"@openzeppelin/contracts/token/ERC20/ERC20.sol\";\n\n// import \"https://github.com/OpenZeppelin/openzeppelin-contracts/blob/v2.5.0/contracts/token/ERC20/IERC20.sol\";\n\ncontract BTCExchange {\n    using SafeMath for uint256;\n    MockBTC public btc;\n    MockUSD public usd;\n    string public name = \"Mocking DEX exchange for BTC\";\n    uint256 public rate;\n\n    event BTCPurchase(\n        address account,\n        address btc,\n        uint256 amount,\n        uint256 rate\n    );\n\n    event BTCSold(address account, address btc, uint256 amount, uint256 rate);\n\n    constructor(MockBTC _btc, MockUSD _usd) public {\n        rate = 55000;\n        btc = _btc;\n        usd = _usd;\n    }\n\n    function setRate(uint256 _rate) public {\n        rate = _rate;\n    }\n\n    //This was to buy with BNB /ETH we should change to DAI\n    function buyBTC(uint256 _usd_amount) public {\n        // buy token with fix rate\n        // require(usd.balanceOf(msg.sender) >= _usd_amount);\n\n        uint256 tokenAmount = _usd_amount.div(rate);\n\n        // required that the exhange has enough token\n        // require(btc.balanceOf(address(this)) >= tokenAmount);\n        btc.allowance(address(this), msg.sender);\n        btc.transferFrom(address(this), msg.sender, tokenAmount);\n\n        // usd.allowance(msg.sender, address(this));\n        // usd.transferFrom(msg.sender,address(this),_usd_amount);\n\n        // // Emit an event\n        emit BTCPurchase(msg.sender, address(btc), tokenAmount, rate);\n    }\n\n    function mintBTC(uint256 _amount) public {\n        btc.mint(_amount);\n    }\n\n    function checkBTC() public view returns (uint256) {\n        return btc.balanceOf(address(this));\n    }\n\n    function checkUSD() public view returns (uint256) {\n        return usd.balanceOf(address(this));\n    }\n\n    // function sellBTC(uint _btc_amount) public payable{\n    //     // User cant sell more token than they have\n    //     require(btc.balanceOf(msg.sender) >= _btc_amount);\n\n    //     // calculate USD amount\n    //     uint usdAmount = _btc_amount.mul(rate);\n\n    //     // required that dcaSwap has enough ether\n    //     require(usd.balanceOf(address(this)) >= usdAmount);\n\n    //     // transfer from sender to this contract\n    //     btc.transferFrom(msg.sender,address(this),_btc_amount);\n\n    //     usd.transferFrom(address(this),msg.sender,usdAmount);\n\n    //     //Emit event\n    //     emit BTCSold(msg.sender,address(btc),_btc_amount,rate);\n\n    // }\n}\n",
  "sourcePath": "/Users/tanawatc/Projects_src/BitDoc/src/contracts/BTCExchange.sol",
  "compiler": {
    "name": "solc",
    "version": "0.5.16+commit.9c3226ce.Emscripten.clang"
  },
  "schemaVersion": "3.2.3",
  "updatedAt": "2021-03-27T14:32:51.341Z",
  "networkType": "ethereum",
  "devdoc": {
    "methods": {}
  },
  "userdoc": {
    "methods": {}
  }
}