{
  "contractName": "DCAcontract",
  "abi": [
    {
      "inputs": [
        {
          "internalType": "address payable",
          "name": "_creator",
          "type": "address"
        }
      ],
      "payable": false,
      "stateMutability": "nonpayable",
      "type": "constructor"
    },
    {
      "payable": true,
      "stateMutability": "payable",
      "type": "fallback"
    },
    {
      "constant": true,
      "inputs": [
        {
          "internalType": "uint256",
          "name": "",
          "type": "uint256"
        }
      ],
      "name": "all_users",
      "outputs": [
        {
          "internalType": "address",
          "name": "",
          "type": "address"
        }
      ],
      "payable": false,
      "stateMutability": "view",
      "type": "function"
    },
    {
      "constant": true,
      "inputs": [],
      "name": "creator",
      "outputs": [
        {
          "internalType": "address payable",
          "name": "",
          "type": "address"
        }
      ],
      "payable": false,
      "stateMutability": "view",
      "type": "function"
    },
    {
      "constant": true,
      "inputs": [],
      "name": "fee_denominator",
      "outputs": [
        {
          "internalType": "uint256",
          "name": "",
          "type": "uint256"
        }
      ],
      "payable": false,
      "stateMutability": "view",
      "type": "function"
    },
    {
      "constant": true,
      "inputs": [],
      "name": "fee_numerator",
      "outputs": [
        {
          "internalType": "uint256",
          "name": "",
          "type": "uint256"
        }
      ],
      "payable": false,
      "stateMutability": "view",
      "type": "function"
    },
    {
      "constant": true,
      "inputs": [],
      "name": "gas_consumption",
      "outputs": [
        {
          "internalType": "uint256",
          "name": "",
          "type": "uint256"
        }
      ],
      "payable": false,
      "stateMutability": "view",
      "type": "function"
    },
    {
      "constant": true,
      "inputs": [
        {
          "internalType": "uint256",
          "name": "",
          "type": "uint256"
        }
      ],
      "name": "relayers",
      "outputs": [
        {
          "internalType": "address",
          "name": "",
          "type": "address"
        }
      ],
      "payable": false,
      "stateMutability": "view",
      "type": "function"
    },
    {
      "constant": true,
      "inputs": [],
      "name": "relayersCount",
      "outputs": [
        {
          "internalType": "uint256",
          "name": "",
          "type": "uint256"
        }
      ],
      "payable": false,
      "stateMutability": "view",
      "type": "function"
    },
    {
      "constant": true,
      "inputs": [
        {
          "internalType": "address",
          "name": "",
          "type": "address"
        }
      ],
      "name": "relayers_existance",
      "outputs": [
        {
          "internalType": "uint256",
          "name": "",
          "type": "uint256"
        }
      ],
      "payable": false,
      "stateMutability": "view",
      "type": "function"
    },
    {
      "constant": true,
      "inputs": [
        {
          "internalType": "address",
          "name": "",
          "type": "address"
        }
      ],
      "name": "streams",
      "outputs": [
        {
          "internalType": "uint256",
          "name": "_id",
          "type": "uint256"
        },
        {
          "internalType": "uint256",
          "name": "parcel",
          "type": "uint256"
        },
        {
          "internalType": "uint256",
          "name": "interval",
          "type": "uint256"
        },
        {
          "internalType": "uint256",
          "name": "startTime",
          "type": "uint256"
        },
        {
          "internalType": "uint256",
          "name": "lastSwap",
          "type": "uint256"
        },
        {
          "internalType": "uint256",
          "name": "isactive",
          "type": "uint256"
        },
        {
          "internalType": "uint256",
          "name": "created",
          "type": "uint256"
        },
        {
          "internalType": "uint256",
          "name": "dai_swapped",
          "type": "uint256"
        },
        {
          "internalType": "uint256",
          "name": "eth_received",
          "type": "uint256"
        }
      ],
      "payable": false,
      "stateMutability": "view",
      "type": "function"
    },
    {
      "constant": true,
      "inputs": [],
      "name": "streamsCount",
      "outputs": [
        {
          "internalType": "uint256",
          "name": "",
          "type": "uint256"
        }
      ],
      "payable": false,
      "stateMutability": "view",
      "type": "function"
    },
    {
      "constant": false,
      "inputs": [
        {
          "internalType": "uint256",
          "name": "_parcel",
          "type": "uint256"
        },
        {
          "internalType": "uint256",
          "name": "_interval",
          "type": "uint256"
        }
      ],
      "name": "activate",
      "outputs": [],
      "payable": false,
      "stateMutability": "nonpayable",
      "type": "function"
    },
    {
      "constant": false,
      "inputs": [],
      "name": "stop",
      "outputs": [],
      "payable": false,
      "stateMutability": "nonpayable",
      "type": "function"
    },
    {
      "constant": false,
      "inputs": [],
      "name": "start",
      "outputs": [],
      "payable": false,
      "stateMutability": "nonpayable",
      "type": "function"
    },
    {
      "constant": false,
      "inputs": [
        {
          "internalType": "uint256",
          "name": "_parcel",
          "type": "uint256"
        }
      ],
      "name": "editParcel",
      "outputs": [],
      "payable": false,
      "stateMutability": "nonpayable",
      "type": "function"
    },
    {
      "constant": false,
      "inputs": [
        {
          "internalType": "uint256",
          "name": "_interval",
          "type": "uint256"
        }
      ],
      "name": "editInterval",
      "outputs": [],
      "payable": false,
      "stateMutability": "nonpayable",
      "type": "function"
    },
    {
      "constant": false,
      "inputs": [],
      "name": "registerAsRelayer",
      "outputs": [],
      "payable": false,
      "stateMutability": "nonpayable",
      "type": "function"
    },
    {
      "constant": false,
      "inputs": [
        {
          "internalType": "address payable",
          "name": "_user",
          "type": "address"
        }
      ],
      "name": "convertParcel",
      "outputs": [],
      "payable": false,
      "stateMutability": "nonpayable",
      "type": "function"
    },
    {
      "constant": true,
      "inputs": [
        {
          "internalType": "address payable",
          "name": "_user",
          "type": "address"
        }
      ],
      "name": "check_time",
      "outputs": [
        {
          "internalType": "uint256",
          "name": "",
          "type": "uint256"
        }
      ],
      "payable": false,
      "stateMutability": "view",
      "type": "function"
    },
    {
      "constant": true,
      "inputs": [
        {
          "internalType": "address payable",
          "name": "_user",
          "type": "address"
        }
      ],
      "name": "check_balance",
      "outputs": [
        {
          "internalType": "uint256",
          "name": "",
          "type": "uint256"
        }
      ],
      "payable": false,
      "stateMutability": "view",
      "type": "function"
    },
    {
      "constant": true,
      "inputs": [
        {
          "internalType": "address payable",
          "name": "_user",
          "type": "address"
        },
        {
          "internalType": "uint256",
          "name": "_gasPrice",
          "type": "uint256"
        }
      ],
      "name": "check_gas_price",
      "outputs": [
        {
          "internalType": "uint256",
          "name": "",
          "type": "uint256"
        }
      ],
      "payable": false,
      "stateMutability": "view",
      "type": "function"
    },
    {
      "constant": true,
      "inputs": [
        {
          "internalType": "address payable",
          "name": "_user",
          "type": "address"
        }
      ],
      "name": "check_allowed_relayer",
      "outputs": [
        {
          "internalType": "address",
          "name": "",
          "type": "address"
        }
      ],
      "payable": false,
      "stateMutability": "view",
      "type": "function"
    },
    {
      "constant": true,
      "inputs": [
        {
          "internalType": "uint256",
          "name": "_index",
          "type": "uint256"
        }
      ],
      "name": "scanUsers",
      "outputs": [
        {
          "internalType": "address",
          "name": "",
          "type": "address"
        }
      ],
      "payable": false,
      "stateMutability": "view",
      "type": "function"
    }
  ],
  "bytecode": "0x6080604052600060055560006008553480156200001b57600080fd5b506040516200261d3803806200261d833981810160405260208110156200004157600080fd5b8101908080519060200190929190505050736b175474e89094c44da98b954eedeac495271d0f6000806101000a81548173ffffffffffffffffffffffffffffffffffffffff021916908373ffffffffffffffffffffffffffffffffffffffff16021790555080600160006101000a81548173ffffffffffffffffffffffffffffffffffffffff021916908373ffffffffffffffffffffffffffffffffffffffff160217905550600280819055506103e860038190555062030d406004819055506200016e6000809054906101000a900473ffffffffffffffffffffffffffffffffffffffff16732a1530c4c41db0b0b2bb646cb5eb1a67b71586677fffffffffffffffffffffffffffffffffffffffffffffffffffffffffffffffff6200017560201b62001a111760201c565b5062000651565b600081148062000273575060008373ffffffffffffffffffffffffffffffffffffffff1663dd62ed3e30856040518363ffffffff1660e01b8152600401808373ffffffffffffffffffffffffffffffffffffffff1673ffffffffffffffffffffffffffffffffffffffff1681526020018273ffffffffffffffffffffffffffffffffffffffff1673ffffffffffffffffffffffffffffffffffffffff1681526020019250505060206040518083038186803b1580156200023457600080fd5b505afa15801562000249573d6000803e3d6000fd5b505050506040513d60208110156200026057600080fd5b8101908080519060200190929190505050145b620002ca576040517f08c379a0000000000000000000000000000000000000000000000000000000008152600401808060200182810382526036815260200180620025e76036913960400191505060405180910390fd5b6200039e838473ffffffffffffffffffffffffffffffffffffffff1663095ea7b3905060e01b8484604051602401808373ffffffffffffffffffffffffffffffffffffffff1673ffffffffffffffffffffffffffffffffffffffff16815260200182815260200192505050604051602081830303815290604052907bffffffffffffffffffffffffffffffffffffffffffffffffffffffff19166020820180517bffffffffffffffffffffffffffffffffffffffffffffffffffffffff8381831617835250505050620003a360201b60201c565b505050565b620003cf8273ffffffffffffffffffffffffffffffffffffffff166200060560201b62001c311760201c565b62000442576040517f08c379a000000000000000000000000000000000000000000000000000000000815260040180806020018281038252601f8152602001807f5361666545524332303a2063616c6c20746f206e6f6e2d636f6e74726163740081525060200191505060405180910390fd5b600060608373ffffffffffffffffffffffffffffffffffffffff16836040518082805190602001908083835b602083106200049357805182526020820191506020810190506020830392506200046e565b6001836020036101000a0380198251168184511680821785525050505050509050019150506000604051808303816000865af19150503d8060008114620004f7576040519150601f19603f3d011682016040523d82523d6000602084013e620004fc565b606091505b50915091508162000575576040517f08c379a00000000000000000000000000000000000000000000000000000000081526004018080602001828103825260208152602001807f5361666545524332303a206c6f772d6c6576656c2063616c6c206661696c656481525060200191505060405180910390fd5b600081511115620005ff578080602001905160208110156200059657600080fd5b8101908080519060200190929190505050620005fe576040517f08c379a000000000000000000000000000000000000000000000000000000000815260040180806020018281038252602a815260200180620025bd602a913960400191505060405180910390fd5b5b50505050565b60008060007fc5d2460186f7233c927e7db2dcc703c0e500b653ca82273b7bfad8045d85a47060001b9050833f91508082141580156200064857506000801b8214155b92505050919050565b611f5c80620006616000396000f3fe6080604052600436106101355760003560e01c80639a48e7f9116100ab578063cd2d61871161006f578063cd2d618714610627578063d8af95a814610662578063d99bbeaf1461068d578063dc9d75b0146106c8578063dd8defb2146106f3578063f3f8c4d61461076257610135565b80639a48e7f9146104ee578063aae8e9ed14610569578063b8e315e314610594578063be9a6555146105bf578063c147dff6146105d657610135565b80633b29af6d116100fd5780633b29af6d1461024c5780635afa7d68146102b157806367dac2a01461032c57806383699275146103a75780638ea8f83c146104445780639965e15e1461048957610135565b806302d05d3f1461013757806307da68f51461018e57806309f473fa146101a55780630f44ee57146101bc5780632aa3e7d7146101e7575b005b34801561014357600080fd5b5061014c6107f3565b604051808273ffffffffffffffffffffffffffffffffffffffff1673ffffffffffffffffffffffffffffffffffffffff16815260200191505060405180910390f35b34801561019a57600080fd5b506101a3610819565b005b3480156101b157600080fd5b506101ba61087a565b005b3480156101c857600080fd5b506101d1610974565b6040518082815260200191505060405180910390f35b3480156101f357600080fd5b506102366004803603602081101561020a57600080fd5b81019080803573ffffffffffffffffffffffffffffffffffffffff16906020019092919050505061097a565b6040518082815260200191505060405180910390f35b34801561025857600080fd5b5061029b6004803603602081101561026f57600080fd5b81019080803573ffffffffffffffffffffffffffffffffffffffff169060200190929190505050610c18565b6040518082815260200191505060405180910390f35b3480156102bd57600080fd5b506102ea600480360360208110156102d457600080fd5b8101908080359060200190929190505050610c30565b604051808273ffffffffffffffffffffffffffffffffffffffff1673ffffffffffffffffffffffffffffffffffffffff16815260200191505060405180910390f35b34801561033857600080fd5b506103656004803603602081101561034f57600080fd5b8101908080359060200190929190505050610c6d565b604051808273ffffffffffffffffffffffffffffffffffffffff1673ffffffffffffffffffffffffffffffffffffffff16815260200191505060405180910390f35b3480156103b357600080fd5b506103f6600480360360208110156103ca57600080fd5b81019080803573ffffffffffffffffffffffffffffffffffffffff169060200190929190505050610ca0565b604051808a8152602001898152602001888152602001878152602001868152602001858152602001848152602001838152602001828152602001995050505050505050505060405180910390f35b34801561045057600080fd5b506104876004803603604081101561046757600080fd5b810190808035906020019092919080359060200190929190505050610cee565b005b34801561049557600080fd5b506104d8600480360360208110156104ac57600080fd5b81019080803573ffffffffffffffffffffffffffffffffffffffff169060200190929190505050610ea5565b6040518082815260200191505060405180910390f35b3480156104fa57600080fd5b506105276004803603602081101561051157600080fd5b8101908080359060200190929190505050610f51565b604051808273ffffffffffffffffffffffffffffffffffffffff1673ffffffffffffffffffffffffffffffffffffffff16815260200191505060405180910390f35b34801561057557600080fd5b5061057e610f84565b6040518082815260200191505060405180910390f35b3480156105a057600080fd5b506105a9610f8a565b6040518082815260200191505060405180910390f35b3480156105cb57600080fd5b506105d4610f90565b005b3480156105e257600080fd5b50610625600480360360208110156105f957600080fd5b81019080803573ffffffffffffffffffffffffffffffffffffffff169060200190929190505050610ff1565b005b34801561063357600080fd5b506106606004803603602081101561064a57600080fd5b81019080803590602001909291905050506116c2565b005b34801561066e57600080fd5b50610677611723565b6040518082815260200191505060405180910390f35b34801561069957600080fd5b506106c6600480360360208110156106b057600080fd5b8101908080359060200190929190505050611729565b005b3480156106d457600080fd5b506106dd61178a565b6040518082815260200191505060405180910390f35b3480156106ff57600080fd5b5061074c6004803603604081101561071657600080fd5b81019080803573ffffffffffffffffffffffffffffffffffffffff16906020019092919080359060200190929190505050611790565b6040518082815260200191505060405180910390f35b34801561076e57600080fd5b506107b16004803603602081101561078557600080fd5b81019080803573ffffffffffffffffffffffffffffffffffffffff1690602001909291905050506118ad565b604051808273ffffffffffffffffffffffffffffffffffffffff1673ffffffffffffffffffffffffffffffffffffffff16815260200191505060405180910390f35b600160009054906101000a900473ffffffffffffffffffffffffffffffffffffffff1681565b6000600760003373ffffffffffffffffffffffffffffffffffffffff1673ffffffffffffffffffffffffffffffffffffffff1681526020019081526020016000209050600181600601541461086d57600080fd5b6000816005018190555050565b6001600a60003373ffffffffffffffffffffffffffffffffffffffff1673ffffffffffffffffffffffffffffffffffffffff1681526020019081526020016000205414156108c757600080fd5b3360096000600854815260200190815260200160002060006101000a81548173ffffffffffffffffffffffffffffffffffffffff021916908373ffffffffffffffffffffffffffffffffffffffff1602179055506008600081548092919060010191905055506001600a60003373ffffffffffffffffffffffffffffffffffffffff1673ffffffffffffffffffffffffffffffffffffffff16815260200190815260200160002081905550565b60045481565b600080600760008473ffffffffffffffffffffffffffffffffffffffff1673ffffffffffffffffffffffffffffffffffffffff16815260200190815260200160002090506000816006015414156109f4577fffffffffffffffffffffffffffffffffffffffffffffffffffffffffffffffff915050610c13565b80600101546000809054906101000a900473ffffffffffffffffffffffffffffffffffffffff1673ffffffffffffffffffffffffffffffffffffffff166370a08231856040518263ffffffff1660e01b8152600401808273ffffffffffffffffffffffffffffffffffffffff1673ffffffffffffffffffffffffffffffffffffffff16815260200191505060206040518083038186803b158015610a9757600080fd5b505afa158015610aab573d6000803e3d6000fd5b505050506040513d6020811015610ac157600080fd5b8101908080519060200190929190505050118015610bee575080600101546000809054906101000a900473ffffffffffffffffffffffffffffffffffffffff1673ffffffffffffffffffffffffffffffffffffffff1663dd62ed3e85306040518363ffffffff1660e01b8152600401808373ffffffffffffffffffffffffffffffffffffffff1673ffffffffffffffffffffffffffffffffffffffff1681526020018273ffffffffffffffffffffffffffffffffffffffff1673ffffffffffffffffffffffffffffffffffffffff1681526020019250505060206040518083038186803b158015610bb157600080fd5b505afa158015610bc5573d6000803e3d6000fd5b505050506040513d6020811015610bdb57600080fd5b8101908080519060200190929190505050115b8015610bfe575060018160050154145b15610c0d576001915050610c13565b60009150505b919050565b600a6020528060005260406000206000915090505481565b60006006600083815260200190815260200160002060009054906101000a900473ffffffffffffffffffffffffffffffffffffffff169050919050565b60066020528060005260406000206000915054906101000a900473ffffffffffffffffffffffffffffffffffffffff1681565b60076020528060005260406000206000915090508060000154908060010154908060020154908060030154908060040154908060050154908060060154908060070154908060080154905089565b6000600760003373ffffffffffffffffffffffffffffffffffffffff1673ffffffffffffffffffffffffffffffffffffffff1681526020019081526020016000209050600181600601541415610d5557828160010181905550818160020181905550610ea0565b6040518061012001604052806005548152602001848152602001838152602001428152602001600081526020016001815260200160018152602001600081526020016000815250600760003373ffffffffffffffffffffffffffffffffffffffff1673ffffffffffffffffffffffffffffffffffffffff168152602001908152602001600020600082015181600001556020820151816001015560408201518160020155606082015181600301556080820151816004015560a0820151816005015560c0820151816006015560e0820151816007015561010082015181600801559050503360066000600554815260200190815260200160002060006101000a81548173ffffffffffffffffffffffffffffffffffffffff021916908373ffffffffffffffffffffffffffffffffffffffff1602179055506005600081548092919060010191905055505b505050565b600080600760008473ffffffffffffffffffffffffffffffffffffffff1673ffffffffffffffffffffffffffffffffffffffff1681526020019081526020016000209050600081600601541415610f1f577fffffffffffffffffffffffffffffffffffffffffffffffffffffffffffffffff915050610f4c565b8060020154816004015401421015610f465742816002015482600401540103915050610f4c565b60009150505b919050565b60096020528060005260406000206000915054906101000a900473ffffffffffffffffffffffffffffffffffffffff1681565b60085481565b60055481565b6000600760003373ffffffffffffffffffffffffffffffffffffffff1673ffffffffffffffffffffffffffffffffffffffff16815260200190815260200160002090506001816006015414610fe457600080fd5b6001816005018190555050565b6000600760008373ffffffffffffffffffffffffffffffffffffffff1673ffffffffffffffffffffffffffffffffffffffff168152602001908152602001600020905060003a90506000732a1530c4c41db0b0b2bb646cb5eb1a67b715866773ffffffffffffffffffffffffffffffffffffffff166395b68fe784600101546040518263ffffffff1660e01b81526004018082815260200191505060206040518083038186803b1580156110a457600080fd5b505afa1580156110b8573d6000803e3d6000fd5b505050506040513d60208110156110ce57600080fd5b8101908080519060200190929190505050905060008090506000809050600080905060008660040154141561116b5760085460f002866003015442038161111157fe5b04905060f060085460f002820287600301544203038161112d57fe5b0491506009600083815260200190815260200160002060009054906101000a900473ffffffffffffffffffffffffffffffffffffffff1692506111e1565b60085460f002866002015487600401544203038161118557fe5b04905060f060085460f00282028760020154886004015442030303816111a757fe5b0491506009600083815260200190815260200160002060009054906101000a900473ffffffffffffffffffffffffffffffffffffffff1692505b600186600601541480156111f9575060018660050154145b801561120e5750856002015486600401540142115b801561122a57506064600385028161122257fe5b046004548602105b801561126157503373ffffffffffffffffffffffffffffffffffffffff168373ffffffffffffffffffffffffffffffffffffffff16145b61126a57600080fd5b6000809054906101000a900473ffffffffffffffffffffffffffffffffffffffff1673ffffffffffffffffffffffffffffffffffffffff166323b872dd883089600101546040518463ffffffff1660e01b8152600401808473ffffffffffffffffffffffffffffffffffffffff1673ffffffffffffffffffffffffffffffffffffffff1681526020018373ffffffffffffffffffffffffffffffffffffffff1673ffffffffffffffffffffffffffffffffffffffff1681526020018281526020019350505050602060405180830381600087803b15801561134a57600080fd5b505af115801561135e573d6000803e3d6000fd5b505050506040513d602081101561137457600080fd5b8101908080519060200190929190505050506000732a1530c4c41db0b0b2bb646cb5eb1a67b715866773ffffffffffffffffffffffffffffffffffffffff166395e3c50b88600101546001607842016040518463ffffffff1660e01b8152600401808481526020018381526020018281526020019350505050602060405180830381600087803b15801561140757600080fd5b505af115801561141b573d6000803e3d6000fd5b505050506040513d602081101561143157600080fd5b810190808051906020019092919050505090508773ffffffffffffffffffffffffffffffffffffffff166108fc87600454026003546002546003540385028161147657fe5b04039081150290604051600060405180830381858888f193505050501580156114a3573d6000803e3d6000fd5b503373ffffffffffffffffffffffffffffffffffffffff166108fc600354600280548502816114ce57fe5b04816114d657fe5b048860045402019081150290604051600060405180830381858888f19350505050158015611508573d6000803e3d6000fd5b50600160009054906101000a900473ffffffffffffffffffffffffffffffffffffffff1673ffffffffffffffffffffffffffffffffffffffff166108fc6003546002805485028161155557fe5b048161155d57fe5b049081150290604051600060405180830381858888f19350505050158015611589573d6000803e3d6000fd5b50866001015487600701540187600701819055506003546002548202816115ac57fe5b0486600454028289600801540103038760080181905550428760040181905550600083146116b85760006009600060018603815260200190815260200160002060009054906101000a900473ffffffffffffffffffffffffffffffffffffffff169050336009600060018703815260200190815260200160002060006101000a81548173ffffffffffffffffffffffffffffffffffffffff021916908373ffffffffffffffffffffffffffffffffffffffff160217905550806009600086815260200190815260200160002060006101000a81548173ffffffffffffffffffffffffffffffffffffffff021916908373ffffffffffffffffffffffffffffffffffffffff160217905550505b5050505050505050565b6000600760003373ffffffffffffffffffffffffffffffffffffffff1673ffffffffffffffffffffffffffffffffffffffff1681526020019081526020016000209050600181600601541461171657600080fd5b8181600201819055505050565b60025481565b6000600760003373ffffffffffffffffffffffffffffffffffffffff1673ffffffffffffffffffffffffffffffffffffffff1681526020019081526020016000209050600181600601541461177d57600080fd5b8181600101819055505050565b60035481565b600080600760008573ffffffffffffffffffffffffffffffffffffffff1673ffffffffffffffffffffffffffffffffffffffff16815260200190815260200160002090506000732a1530c4c41db0b0b2bb646cb5eb1a67b715866773ffffffffffffffffffffffffffffffffffffffff166395b68fe783600101546040518263ffffffff1660e01b81526004018082815260200191505060206040518083038186803b15801561183f57600080fd5b505afa158015611853573d6000803e3d6000fd5b505050506040513d602081101561186957600080fd5b810190808051906020019092919050505090506064600382028161188957fe5b04600454850210156118a0576001925050506118a7565b6000925050505b92915050565b600080600760008473ffffffffffffffffffffffffffffffffffffffff1673ffffffffffffffffffffffffffffffffffffffff1681526020019081526020016000209050806002015481600401540142101561190d576000915050611a0c565b60008160040154141561198f57600060085460f002826003015442038161193057fe5b049050600060f060085460f002830284600301544203038161194e57fe5b0490506009600082815260200190815260200160002060009054906101000a900473ffffffffffffffffffffffffffffffffffffffff169350505050611a0c565b600060085460f00282600201548360040154420303816119ab57fe5b049050600060f060085460f00283028460020154856004015442030303816119cf57fe5b0490506009600082815260200190815260200160002060009054906101000a900473ffffffffffffffffffffffffffffffffffffffff1693505050505b919050565b6000811480611b0b575060008373ffffffffffffffffffffffffffffffffffffffff1663dd62ed3e30856040518363ffffffff1660e01b8152600401808373ffffffffffffffffffffffffffffffffffffffff1673ffffffffffffffffffffffffffffffffffffffff1681526020018273ffffffffffffffffffffffffffffffffffffffff1673ffffffffffffffffffffffffffffffffffffffff1681526020019250505060206040518083038186803b158015611ace57600080fd5b505afa158015611ae2573d6000803e3d6000fd5b505050506040513d6020811015611af857600080fd5b8101908080519060200190929190505050145b611b60576040517f08c379a0000000000000000000000000000000000000000000000000000000008152600401808060200182810382526036815260200180611ef26036913960400191505060405180910390fd5b611c2c838473ffffffffffffffffffffffffffffffffffffffff1663095ea7b3905060e01b8484604051602401808373ffffffffffffffffffffffffffffffffffffffff1673ffffffffffffffffffffffffffffffffffffffff16815260200182815260200192505050604051602081830303815290604052907bffffffffffffffffffffffffffffffffffffffffffffffffffffffff19166020820180517bffffffffffffffffffffffffffffffffffffffffffffffffffffffff8381831617835250505050611c7c565b505050565b60008060007fc5d2460186f7233c927e7db2dcc703c0e500b653ca82273b7bfad8045d85a47060001b9050833f9150808214158015611c7357506000801b8214155b92505050919050565b611c9b8273ffffffffffffffffffffffffffffffffffffffff16611c31565b611d0d576040517f08c379a000000000000000000000000000000000000000000000000000000000815260040180806020018281038252601f8152602001807f5361666545524332303a2063616c6c20746f206e6f6e2d636f6e74726163740081525060200191505060405180910390fd5b600060608373ffffffffffffffffffffffffffffffffffffffff16836040518082805190602001908083835b60208310611d5c5780518252602082019150602081019050602083039250611d39565b6001836020036101000a0380198251168184511680821785525050505050509050019150506000604051808303816000865af19150503d8060008114611dbe576040519150601f19603f3d011682016040523d82523d6000602084013e611dc3565b606091505b509150915081611e3b576040517f08c379a00000000000000000000000000000000000000000000000000000000081526004018080602001828103825260208152602001807f5361666545524332303a206c6f772d6c6576656c2063616c6c206661696c656481525060200191505060405180910390fd5b600081511115611ec157808060200190516020811015611e5a57600080fd5b8101908080519060200190929190505050611ec0576040517f08c379a000000000000000000000000000000000000000000000000000000000815260040180806020018281038252602a815260200180611ec8602a913960400191505060405180910390fd5b5b5050505056fe5361666545524332303a204552433230206f7065726174696f6e20646964206e6f7420737563636565645361666545524332303a20617070726f76652066726f6d206e6f6e2d7a65726f20746f206e6f6e2d7a65726f20616c6c6f77616e6365a265627a7a72315820df237eb365382fec7fd045105171c45078ee4d0f15dcd75a7dd177d2da2b760b64736f6c634300051000325361666545524332303a204552433230206f7065726174696f6e20646964206e6f7420737563636565645361666545524332303a20617070726f76652066726f6d206e6f6e2d7a65726f20746f206e6f6e2d7a65726f20616c6c6f77616e6365",
  "source": "pragma solidity >0.5.0;\n\nimport \"@openzeppelin/contracts/token/ERC20/IERC20.sol\";\nimport \"@openzeppelin/contracts/token/ERC20/SafeERC20.sol\";\n\ncontract IUniswapExchange {\n    // Address of ERC20 token sold on this exchange\n    function tokenAddress() external view returns (address token);\n    // Address of Uniswap Factory\n    function factoryAddress() external view returns (address factory);\n    // Provide Liquidity\n    function addLiquidity(uint256 min_liquidity, uint256 max_tokens, uint256 deadline) external payable returns (uint256);\n    function removeLiquidity(uint256 amount, uint256 min_eth, uint256 min_tokens, uint256 deadline) external returns (uint256, uint256);\n    // Get Prices\n    function getEthToTokenInputPrice(uint256 eth_sold) external view returns (uint256 tokens_bought);\n    function getEthToTokenOutputPrice(uint256 tokens_bought) external view returns (uint256 eth_sold);\n    function getTokenToEthInputPrice(uint256 tokens_sold) external view returns (uint256 eth_bought);\n    function getTokenToEthOutputPrice(uint256 eth_bought) external view returns (uint256 tokens_sold);\n    // Trade ETH to ERC20\n    function ethToTokenSwapInput(uint256 min_tokens, uint256 deadline) external payable returns (uint256  tokens_bought);\n    function ethToTokenTransferInput(uint256 min_tokens, uint256 deadline, address recipient) external payable returns (uint256  tokens_bought);\n    function ethToTokenSwapOutput(uint256 tokens_bought, uint256 deadline) external payable returns (uint256  eth_sold);\n    function ethToTokenTransferOutput(uint256 tokens_bought, uint256 deadline, address recipient) external payable returns (uint256  eth_sold);\n    // Trade ERC20 to ETH\n    function tokenToEthSwapInput(uint256 tokens_sold, uint256 min_eth, uint256 deadline) external returns (uint256  eth_bought);\n    function tokenToEthTransferInput(uint256 tokens_sold, uint256 min_tokens, uint256 deadline, address recipient) external returns (uint256  eth_bought);\n    function tokenToEthSwapOutput(uint256 eth_bought, uint256 max_tokens, uint256 deadline) external returns (uint256  tokens_sold);\n    function tokenToEthTransferOutput(uint256 eth_bought, uint256 max_tokens, uint256 deadline, address recipient) external returns (uint256  tokens_sold);\n    // Trade ERC20 to ERC20\n    function tokenToTokenSwapInput(uint256 tokens_sold, uint256 min_tokens_bought, uint256 min_eth_bought, uint256 deadline, address token_addr) external returns (uint256  tokens_bought);\n    function tokenToTokenTransferInput(uint256 tokens_sold, uint256 min_tokens_bought, uint256 min_eth_bought, uint256 deadline, address recipient, address token_addr) external returns (uint256  tokens_bought);\n    function tokenToTokenSwapOutput(uint256 tokens_bought, uint256 max_tokens_sold, uint256 max_eth_sold, uint256 deadline, address token_addr) external returns (uint256  tokens_sold);\n    function tokenToTokenTransferOutput(uint256 tokens_bought, uint256 max_tokens_sold, uint256 max_eth_sold, uint256 deadline, address recipient, address token_addr) external returns (uint256  tokens_sold);\n    // Trade ERC20 to Custom Pool\n    function tokenToExchangeSwapInput(uint256 tokens_sold, uint256 min_tokens_bought, uint256 min_eth_bought, uint256 deadline, address exchange_addr) external returns (uint256  tokens_bought);\n    function tokenToExchangeTransferInput(uint256 tokens_sold, uint256 min_tokens_bought, uint256 min_eth_bought, uint256 deadline, address recipient, address exchange_addr) external returns (uint256  tokens_bought);\n    function tokenToExchangeSwapOutput(uint256 tokens_bought, uint256 max_tokens_sold, uint256 max_eth_sold, uint256 deadline, address exchange_addr) external returns (uint256  tokens_sold);\n    function tokenToExchangeTransferOutput(uint256 tokens_bought, uint256 max_tokens_sold, uint256 max_eth_sold, uint256 deadline, address recipient, address exchange_addr) external returns (uint256  tokens_sold);\n    // ERC20 comaptibility for liquidity tokens\n    bytes32 public name;\n    bytes32 public symbol;\n    uint256 public decimals;\n    function transfer(address _to, uint256 _value) external returns (bool);\n    function transferFrom(address _from, address _to, uint256 value) external returns (bool);\n    function approve(address _spender, uint256 _value) external returns (bool);\n    function allowance(address _owner, address _spender) external view returns (uint256);\n    function balanceOf(address _owner) external view returns (uint256);\n    function totalSupply() public view returns (uint256);\n    // Never use\n    function setup(address token_addr) external;\n}\n\n\ncontract DCAcontract {\n    IERC20 dai;\n    address payable public creator;\n    uint public fee_numerator;\n    uint public fee_denominator;\n    uint public gas_consumption;\n\n    uint public streamsCount = 0;\n    mapping(uint => address) public all_users;\n    \n    mapping(address => Stream) public streams;\n    struct Stream {\n        uint _id;\n        uint parcel;    // parcel in DAI\n        uint interval;  // interval in seconds\n        uint startTime;\n        uint lastSwap;\n        uint isactive;\n        uint created;\n        uint dai_swapped;\n        uint eth_received;\n    }\n    \n    uint public relayersCount = 0;\n    mapping(uint => address) public relayers;\n    mapping(address => uint) public relayers_existance;\n    \n\n    // at creation, define who is the contract creator\n    // the creator does not have specific powers, but will receive 50% of the fees collected by the relayers\n    // this will allow the creator to sustain development and marketing of the frontend app to the users\n    constructor(address payable _creator) public {\n        dai = IERC20(0x6B175474E89094C44Da98b954EedeAC495271d0F);\n        creator = _creator;\n        fee_numerator = 2;\n        fee_denominator = 1000;\n        gas_consumption = 200000;\n        SafeERC20.safeApprove(dai, 0x2a1530C4C41db0B0b2bB646CB5Eb1A67b7158667, uint(-1));\n    }\n\n\n    // allow the user to activate the dca stream\n    // by default, a stream is set to active (isactive =1) when it is originally created\n    function activate(uint _parcel, uint _interval) external {\n        Stream storage s = streams[msg.sender];\n        if (s.created == 1) {\n            s.parcel = _parcel;\n            s.interval = _interval;\n        } else {\n            // then create the stream\n            streams[msg.sender] = Stream(streamsCount, _parcel, _interval, block.timestamp, 0, 1, 1, 0, 0);\n            all_users[streamsCount] = msg.sender;\n            streamsCount ++;\n        }\n    }   \n    \n    // allow the user to stop the dca stream\n    function stop() external {\n        Stream storage s = streams[msg.sender];\n        require(s.created == 1);\n        s.isactive = 0;\n    } \n\n    // allow the user to re-start the dca stream\n    function start() external {\n        Stream storage s = streams[msg.sender];\n        require(s.created == 1);\n        s.isactive = 1;\n    } \n\n    // allow the user to edit the individual parcel amount that is regularly purchased\n    function editParcel(uint _parcel) external {\n        Stream storage s = streams[msg.sender];\n        require(s.created == 1);\n        s.parcel = _parcel;\n    }   \n\n    // allow the user to edit the interval between purchases\n    function editInterval(uint _interval) external {\n        Stream storage s = streams[msg.sender];\n        require(s.created == 1);\n        s.interval = _interval;\n    }  \n\n    // allow an address to register as a relayer\n    function registerAsRelayer() external{\n        // this function adds the msg.sender to the list of relayers\n        // this is a FIFO list which will assign to each relayer a \"time window\" of 240 seconds to execute the DCA transaction.\n        // the reason for this architecture is to allow everyone to be a relayer, but at the same time discourage gas bidding competition\n        // which would ultimately damage the end user (who is paying for the gas)\n        \n        // first require that this relayers is not already in the list\n        require(relayers_existance[msg.sender] != 1);\n        relayers[relayersCount] = msg.sender;\n        relayersCount ++;\n        relayers_existance[msg.sender] = 1;\n    }\n    \n\n    // allow a relayer to execute the transaction for a user and convert his DAI parcel into ETH\n    function convertParcel(address payable _user) external{\n        Stream storage s = streams[_user];\n        uint256 gasPrice = tx.gasprice;\n        uint256 eth_bought = IUniswapExchange(0x2a1530C4C41db0B0b2bB646CB5Eb1A67b7158667).getTokenToEthInputPrice(s.parcel);\n        \n        // the contract execution requires several conditions:\n        //    a) that a stream was created for the user in the past (s.created == 1)\n        //    b) that the stream is active (s.isactive == 1)\n        //    c) that enough time has passed since the last swap (ready_since>=0)\n        //    d) that the estimated gas cost is below 3% of the returned amount from Uniswap; otherwise don't let  transaction take place\n        //    e) that the current time window is open for this relayer\n        //\n        // starting from the top relayer in the list, each relayer will have a \"time windows\" of 240 seconds assigned to make the transaction\n        // if that relayer does not respond, the time window will open for the second in the list, and so on\n        // the first relayer that sends the transaction will move up in the list by one position.\n        // this will allow anyone to be a relayer, while discouraging bidding with a high gas price which would ultimately damage the end user\n        \n        address relayer_allowed = 0x0000000000000000000000000000000000000000;\n        uint relayer_allowed_index = 0;\n        uint multiple = 0;\n        \n        if (s.lastSwap == 0){\n            multiple = (now - s.startTime) / (240 * relayersCount);\n            relayer_allowed_index = ((now - s.startTime) - multiple * (240 * relayersCount)) / 240;\n            relayer_allowed = relayers[relayer_allowed_index];\n        } else {\n            multiple = (now - s.lastSwap - s.interval) / (240 * relayersCount);\n            relayer_allowed_index = ((now - s.lastSwap - s.interval) - multiple * (240 * relayersCount)) / 240;\n            relayer_allowed = relayers[relayer_allowed_index];\n        }\n\n        require(s.created == 1 && \n                s.isactive == 1 &&\n                now > s.lastSwap + s.interval &&\n                gasPrice * gas_consumption < eth_bought * 3 / 100 &&\n                relayer_allowed == msg.sender);\n        \n        // if all the conditions are satisfied, proceed with the swap\n        // first move the parcel of DAI from the owner wallet to this contract, then return the ETH obtained to the contract\n        dai.transferFrom(_user, address(this), s.parcel);\n        uint256 ether_returned = IUniswapExchange(0x2a1530C4C41db0B0b2bB646CB5Eb1A67b7158667).tokenToEthSwapInput(s.parcel, 1, now+120);\n        \n        // now distribute the ether_returned between the owner, the relayer and the creator\n        // in particular:\n        //    a) the owner gets the ETH received from uniswap, net of the gas cost and the fee\n        //    b) the relayer gets 50% of the fee, plus a reimbursement for the gas cost\n        //    c) the creator gets 50% of the fee\n        \n        _user.transfer(ether_returned * (fee_denominator - fee_numerator)/fee_denominator - gas_consumption * gasPrice); // to the user\n        msg.sender.transfer(gas_consumption * gasPrice + (ether_returned * fee_numerator / 2) / fee_denominator); // to the relayer\n        creator.transfer((ether_returned * fee_numerator / 2) / fee_denominator);  // to the creator\n        \n        // record in the contract the amount of DAI swapped and ETH received\n        // also, update the timestamp of the last swap\n        s.dai_swapped = s.dai_swapped + s.parcel;\n        s.eth_received = s.eth_received + ether_returned - gas_consumption * gasPrice - (ether_returned * fee_numerator) / fee_denominator;\n        s.lastSwap = block.timestamp;\n        \n        // finally, readjust the FIFO list of relayers and reward the relayer that made the transaction by moving up one notch\n        if (relayer_allowed_index != 0){\n            address relayer_before = relayers[relayer_allowed_index - 1];\n            relayers[relayer_allowed_index - 1] = msg.sender;\n            relayers[relayer_allowed_index] = relayer_before;\n        }\n    }\n\n\n    // check that is the right time to trigger a swap for a certain user\n    // NOTE: this function needs to return 0 for the transaction to be possible\n    function check_time(address payable _user) public view returns(uint){\n        Stream storage s = streams[_user];\n        if (s.created == 0) { \n            // if the user was never created\n            return uint(-1);\n            \n        } else if (now < s.lastSwap + s.interval){\n            // if the user was created, but it's not yet time to make a swap, return the remaining time in seconds\n            return s.lastSwap + s.interval - now; \n            \n        } else {\n            // if the timing is good to make the swap, return 0\n            return 0;  \n        }\n    }\n\n\n    // check that the address has a sufficient DAI balance and allowance to make the swap & the stream is active\n    // NOTE: this function needs to return 1 for the transaction to be possible\n    function check_balance(address payable _user) public view returns(uint){\n        Stream storage s = streams[_user];\n        if (s.created == 0) {\n            // if the user was never created\n            return uint(-1);\n            \n        } else if (dai.balanceOf(_user) > s.parcel && dai.allowance(_user, address(this)) > s.parcel && s.isactive == 1) {\n            // if the balance is enough and we have enough allowance to make the swap, return 1\n            return 1;\n            \n        } else {\n            // if not, return 0\n            return 0;\n        }\n    }\n    \n    // check that the gas price that we are planning to use doesn't exceed 3% of the ethereum received\n    // NOTE: this function needs to return 1 for the transaction to be possible\n    function check_gas_price(address payable _user, uint _gasPrice) public view returns(uint){\n        Stream storage s = streams[_user];\n        uint256 eth_bought = IUniswapExchange(0x2a1530C4C41db0B0b2bB646CB5Eb1A67b7158667).getTokenToEthInputPrice(s.parcel);\n        if (_gasPrice * gas_consumption < eth_bought * 3 / 100){\n            // the gas price that the relayer plans to adopt is ok\n            return 1;\n            \n        } else {\n            // the gas price that the relayer plans to adopt is too high\n            return 0;\n        }\n    }\n    \n    // check what relayer is currently allowed to execute the transaction\n    // NOTE: this function needs to return your address for you to be allowed as a relayer to execute the transaction and obtain the fee\n    function check_allowed_relayer(address payable _user) public view returns(address){\n        Stream storage s = streams[_user];\n        if (now < s.lastSwap + s.interval){\n            return 0x0000000000000000000000000000000000000000;\n        } else if (s.lastSwap == 0){\n            uint multiple = (now - s.startTime) / (240 * relayersCount);\n            uint relayer_allowed_index = ((now - s.startTime) - multiple * (240 * relayersCount)) / 240;\n            return relayers[relayer_allowed_index];\n        } else {\n            uint multiple = (now - s.lastSwap - s.interval) / (240 * relayersCount);\n            uint relayer_allowed_index = ((now - s.lastSwap - s.interval) - multiple * (240 * relayersCount)) / 240;\n            return relayers[relayer_allowed_index];\n        }\n        \n    }\n\n        \n    // scan through the all_users list and obtain the address of each user\n    function scanUsers(uint _index) public view returns(address){\n        return all_users[_index];\n    }\n\n\n    // Include fallback so the contract can receive ETH from exchange\n    function () external payable {}\n\n}",
  "sourcePath": "/Users/tanawatc/Projects_src/BitDoc/src/contracts/refs/dca_land.sol",
  "compiler": {
    "name": "solc",
    "version": "0.5.16+commit.9c3226ce.Emscripten.clang"
  },
  "schemaVersion": "3.2.3",
  "updatedAt": "2021-03-26T14:48:16.666Z",
  "devdoc": {
    "methods": {}
  },
  "userdoc": {
    "methods": {}
  }
}