{
  "contractName": "TestToken",
  "abi": [
    {
      "constant": true,
      "inputs": [],
      "name": "getdata",
      "outputs": [
        {
          "internalType": "uint256",
          "name": "",
          "type": "uint256"
        }
      ],
      "payable": false,
      "stateMutability": "view",
      "type": "function"
    }
  ],
  "bytecode": "0x60806040526001600055348015601457600080fd5b506087806100236000396000f3fe6080604052348015600f57600080fd5b506004361060285760003560e01c80634fa10cfc14602d575b600080fd5b60336049565b6040518082815260200191505060405180910390f35b6000600590509056fea265627a7a72315820dd796df244fc2a65729f5ace682fca1c60d89d19525791b39d89be15227b3fa864736f6c63430005100032",
  "source": "pragma solidity ^0.5.0;\n\n\ncontract TestToken  {\n    uint data =1;\n\n    function getdata() public view returns(uint){\n        return 5;\n    }\n}",
  "sourcePath": "/Users/tanawatc/Projects_src/BitDoc/src/test_deploy/TestToken.sol",
  "compiler": {
    "name": "solc",
    "version": "0.5.16+commit.9c3226ce.Emscripten.clang"
  },
  "schemaVersion": "3.2.3",
  "updatedAt": "2021-03-27T12:35:56.746Z",
  "devdoc": {
    "methods": {}
  },
  "userdoc": {
    "methods": {}
  }
}