{
  "contractName": "TimeLockedWallet",
  "abi": [
    {
      "inputs": [
        {
          "internalType": "uint256",
          "name": "_unlockTime",
          "type": "uint256"
        }
      ],
      "payable": false,
      "stateMutability": "nonpayable",
      "type": "constructor"
    },
    {
      "anonymous": false,
      "inputs": [
        {
          "indexed": false,
          "internalType": "address",
          "name": "account",
          "type": "address"
        },
        {
          "indexed": false,
          "internalType": "uint256",
          "name": "amount",
          "type": "uint256"
        },
        {
          "indexed": false,
          "internalType": "uint256",
          "name": "depositTime",
          "type": "uint256"
        }
      ],
      "name": "DepositETH",
      "type": "event"
    },
    {
      "anonymous": false,
      "inputs": [
        {
          "indexed": false,
          "internalType": "address",
          "name": "account",
          "type": "address"
        },
        {
          "indexed": false,
          "internalType": "uint256",
          "name": "etherAmount",
          "type": "uint256"
        },
        {
          "indexed": false,
          "internalType": "uint256",
          "name": "interest",
          "type": "uint256"
        },
        {
          "indexed": false,
          "internalType": "uint256",
          "name": "penalty",
          "type": "uint256"
        },
        {
          "indexed": false,
          "internalType": "uint256",
          "name": "withdrawalTime",
          "type": "uint256"
        }
      ],
      "name": "Withdraw",
      "type": "event"
    },
    {
      "constant": true,
      "inputs": [],
      "name": "createdAt",
      "outputs": [
        {
          "internalType": "uint256",
          "name": "",
          "type": "uint256"
        }
      ],
      "payable": false,
      "stateMutability": "view",
      "type": "function"
    },
    {
      "constant": true,
      "inputs": [],
      "name": "depositTime",
      "outputs": [
        {
          "internalType": "uint256",
          "name": "",
          "type": "uint256"
        }
      ],
      "payable": false,
      "stateMutability": "view",
      "type": "function"
    },
    {
      "constant": true,
      "inputs": [],
      "name": "ethBalance",
      "outputs": [
        {
          "internalType": "uint256",
          "name": "",
          "type": "uint256"
        }
      ],
      "payable": false,
      "stateMutability": "view",
      "type": "function"
    },
    {
      "constant": true,
      "inputs": [],
      "name": "penaltyRate",
      "outputs": [
        {
          "internalType": "uint256",
          "name": "",
          "type": "uint256"
        }
      ],
      "payable": false,
      "stateMutability": "view",
      "type": "function"
    },
    {
      "constant": true,
      "inputs": [],
      "name": "penaltyReserves",
      "outputs": [
        {
          "internalType": "uint256",
          "name": "",
          "type": "uint256"
        }
      ],
      "payable": false,
      "stateMutability": "view",
      "type": "function"
    },
    {
      "constant": true,
      "inputs": [],
      "name": "unlockTime",
      "outputs": [
        {
          "internalType": "uint256",
          "name": "",
          "type": "uint256"
        }
      ],
      "payable": false,
      "stateMutability": "view",
      "type": "function"
    },
    {
      "constant": false,
      "inputs": [],
      "name": "deposit",
      "outputs": [],
      "payable": true,
      "stateMutability": "payable",
      "type": "function"
    },
    {
      "constant": true,
      "inputs": [],
      "name": "checkPenalty",
      "outputs": [
        {
          "internalType": "bool",
          "name": "",
          "type": "bool"
        }
      ],
      "payable": false,
      "stateMutability": "view",
      "type": "function"
    },
    {
      "constant": false,
      "inputs": [],
      "name": "withdraw",
      "outputs": [],
      "payable": false,
      "stateMutability": "nonpayable",
      "type": "function"
    }
  ],
  "bytecode": "0x608060405233600660006101000a81548173ffffffffffffffffffffffffffffffffffffffff021916908373ffffffffffffffffffffffffffffffffffffffff16021790555034801561005157600080fd5b506040516106063803806106068339818101604052602081101561007457600080fd5b810190808051906020019092919050505033600660006101000a81548173ffffffffffffffffffffffffffffffffffffffff021916908373ffffffffffffffffffffffffffffffffffffffff16021790555080600081905550426001819055506000600381905550600a60048190555060006005819055505061050a806100fc6000396000f3fe6080604052600436106100865760003560e01c80635e8a626e116100595780635e8a626e14610127578063cf09e0d014610152578063d0e30db01461017d578063d6b7494f14610187578063df4ad65c146101b257610086565b80630fbee46e1461008b578063251c1aa3146100ba5780633ccfd60b146100e55780634e6630b0146100fc575b600080fd5b34801561009757600080fd5b506100a06101dd565b604051808215151515815260200191505060405180910390f35b3480156100c657600080fd5b506100cf6101ea565b6040518082815260200191505060405180910390f35b3480156100f157600080fd5b506100fa6101f0565b005b34801561010857600080fd5b506101116103a9565b6040518082815260200191505060405180910390f35b34801561013357600080fd5b5061013c6103af565b6040518082815260200191505060405180910390f35b34801561015e57600080fd5b506101676103b5565b6040518082815260200191505060405180910390f35b6101856103bb565b005b34801561019357600080fd5b5061019c6104a7565b6040518082815260200191505060405180910390f35b3480156101be57600080fd5b506101c76104ad565b6040518082815260200191505060405180910390f35b6000426000541015905090565b60005481565b60006003541015610269576040517f08c379a000000000000000000000000000000000000000000000000000000000815260040180806020018281038252601a8152602001807f4572726f722c206e6f2070726576696f7573206465706f73697400000000000081525060200191505060405180910390fd5b600080905060008090506000809050600015156102846101dd565b1515141561029a576003549050600a92506102b5565b606460045460035402816102aa57fe5b049050806003540391505b804710156102c257600080fd5b3373ffffffffffffffffffffffffffffffffffffffff166108fc829081150290604051600060405180830381858888f19350505050158015610308573d6000803e3d6000fd5b506000600381905550816005600082825401925050819055507fe08737ac48a1dab4b1a46c7dc9398bd5bfc6d7ad6fabb7cd8caa254de14def353382858542604051808673ffffffffffffffffffffffffffffffffffffffff1673ffffffffffffffffffffffffffffffffffffffff1681526020018581526020018481526020018381526020018281526020019550505050505060405180910390a1505050565b60035481565b60025481565b60015481565b662386f26fc1000034101561041b576040517f08c379a00000000000000000000000000000000000000000000000000000000081526004018080602001828103825260228152602001806104b46022913960400191505060405180910390fd5b34600360008282540192505081905550426002819055507f57e8e547a3ef8d890c570ca885b0a8c441be3070e36b7ad4c7d6b9d9316ff2ce333442604051808473ffffffffffffffffffffffffffffffffffffffff1673ffffffffffffffffffffffffffffffffffffffff168152602001838152602001828152602001935050505060405180910390a1565b60045481565b6005548156fe4572726f722c206465706f736974206d757374206265203e3d20302e303120455448a265627a7a72315820effe7fd180da33f985be2bf809e9f8adaf5503baf560dd3b0a2326e16e06ab7e64736f6c63430005100032",
  "source": "pragma solidity >0.5.0;\nimport \"@openzeppelin/contracts/token/ERC20/ERC20.sol\";\n\n// import \"https://github.com/OpenZeppelin/openzeppelin-contracts/blob/v2.5.0/contracts/token/ERC20/ERC20.sol\";\n// import \"https://github.com/OpenZeppelin/openzeppelin-contracts/blob/v2.5.0/contracts/math/SafeMath.sol\";\ncontract TimeLockedWallet {\n    // address public owner;\n    uint256 public unlockTime;\n    uint256 public createdAt;\n    uint256 public depositTime;\n    // uint256 public hodlPeriod;\n    uint256 public ethBalance;\n    uint256 public penaltyRate; // penalty in ratio like 0.1 => 10%\n    uint256 public penaltyReserves;\n    address payable owner = msg.sender;\n\n    event DepositETH(address account, uint256 amount, uint256 depositTime);\n    event Withdraw(\n        address account,\n        uint256 etherAmount,\n        uint256 interest,\n        uint256 penalty,\n        uint256 withdrawalTime\n    );\n\n    modifier onlyOwner {\n        require(msg.sender == owner);\n        _;\n    }\n\n    constructor(uint256 _unlockTime) public {\n        // require(_unlockTime >block.timestamp);\n        owner = msg.sender;\n        unlockTime = _unlockTime;\n        // depositTime = block.timestamp - depositStart[msg.sender];\n        createdAt = block.timestamp;\n        ethBalance = 0;\n        penaltyRate = 10;\n        penaltyReserves = 0;\n    }\n\n    function deposit() public payable {\n        require(msg.value >= 1e16, \"Error, deposit must be >= 0.01 ETH\");\n\n        ethBalance += msg.value;\n        depositTime = block.timestamp;\n\n        emit DepositETH(msg.sender, msg.value, block.timestamp);\n    }\n\n    function checkPenalty() public view returns (bool) {\n        return unlockTime >= block.timestamp;\n    }\n\n    function withdraw() public {\n        require(ethBalance >= 0, \"Error, no previous deposit\");\n\n        uint256 interest = 0;\n        uint256 penalty = 0;\n        uint256 withdrawBalance = 0;\n\n        if (checkPenalty() == false) {\n            withdrawBalance = ethBalance;\n            interest = 10;\n\n            //might add interest\n            //31668017 - interest(10% APY) per second for min. deposit amount (0.01 ETH), cuz:\n            //1e15(10% of 0.01 ETH) / 31577600 (seconds in 365.25 days)\n\n            //(etherBalanceOf[msg.sender] / 1e16) - calc. how much higher interest will be (based on deposit), e.g.:\n            //for min. deposit (0.01 ETH), (etherBalanceOf[msg.sender] / 1e16) = 1 (the same, 31668017/s)\n            //for deposit 0.02 ETH, (etherBalanceOf[msg.sender] / 1e16) = 2 (doubled, (2*31668017)/s)\n            // uint interestPerSecond = 31668017 * (etherBalanceOf[msg.sender] / 1e16);\n            // uint interest = interestPerSecond * depositTime;\n        } else {\n            withdrawBalance = (ethBalance * penaltyRate) / 100;\n            penalty = ethBalance - withdrawBalance;\n        }\n\n        //send funds to user\n        require(address(this).balance >= withdrawBalance);\n\n        msg.sender.transfer(withdrawBalance); //eth back to user\n        // token.mint(msg.sender, interest); //interest to user\n\n        ethBalance = 0;\n        penaltyReserves += penalty;\n\n        emit Withdraw(\n            msg.sender,\n            withdrawBalance,\n            interest,\n            penalty,\n            block.timestamp\n        );\n    }\n}\n",
  "sourcePath": "/mnt/d/Projects/BitDoc/src/contracts/TimeLock.sol",
  "compiler": {
    "name": "solc",
    "version": "0.5.16+commit.9c3226ce.Emscripten.clang"
  },
  "schemaVersion": "3.2.3",
  "updatedAt": "2021-03-26T14:28:34.593Z",
  "devdoc": {
    "methods": {}
  },
  "userdoc": {
    "methods": {}
  }
}